:020000040000FA
:10000000F80B002059060000FD060000193500001D
:100010003935000059350000993500007935000068
:100020000000000000000000000000002527000084
:10003000FD06000000000000FD060000FD060000B7
:10004000000000000000000000000000112B000074
:1000500000000000FD06000000000000000000009D
:10006000FD060000FD060000FD060000FD06000084
:1000700000000000FD060000FD060000FD06000077
:10008000FD060000FD06000000000000000000006A
:10009000FD060000FD06000000000000000000005A
:1000A000FD0600000000000000000000FD0600004A
:1000B000FD060000FD060000FD060000FD06000034
:1000C000FD060000FD060000FD060000FD06000024
:1000D000FD06000000000000FD060000000000001A
:1000E000FD06000000000000FD060000000000000A
:1000F000FD060000000000000000000000000000FD
:1001000000000000FD0600000000000000000000EC
:1001100000000000000000000000000000000000DF
:1001200000000000FD0600000000000000000000CC
:1001300000000000000000000000000000000000BF
:10014000FD060000407C00008010002049000000F7
:1001500080330000200C00200000000080330000ED
:10016000000C002000000000C01100204507000026
:10017000200C002018010000000C002008000000E6
:1001800000015F5F00000000FE0F0000B9270000C3
:1001900080060000000000000000000000000000D9
:1001A00000000000000000006012002000000000BD
:1001B00001015F5F030100001F01000061020000F8
:1001C000000000000000000001000000010000002D
:1001D000000000000000000000000000000000001F
:1001E00070000000A067000080000000000F000009
:1001F000010000002103000001015F5F0401000015
:100200001F010000210600000000000000000000A7
:1002100000000000010000000000000000000000DD
:100220000000000000000000AB670000400000007C
:0C02300005070000010000000D050000A3
:1002400038B50025054C29462046D4F80024C4F8CA
:10025000045403F00AFAC4F8005438BD200C0020FE
:1002600008B500F015F940B900F038F900F044F98C
:1002700018B9BDE8084003F037BC08BD13B51146F6
:100280000022CDE9002242680346302A04683ED1AC
:1002900094F82C20022A18D01AB900F01BF902B0E9
:1002A00010BD1E482468D0F80404013ACDE900408E
:1002B000072A2FD8DFE802F004090D12171C2126A7
:1002C0006A46184600F003F9E9E7184600F0EDF831
:1002D000E5E76A46184600F0EBF8E0E76A4618469C
:1002E00000F0E0F8DBE76A46184600F0E4F8D6E7ED
:1002F0006A46184600F0E2F8D1E76A46184600F070
:10030000E0F8CCE76A46184600F0DEF8C7E76FF081
:100310008000C4E76FF08500C1E700BF200C00201B
:100320002DE9F04F056804469FB0002D40F0AA80EB
:100330002022294602A803F098F912AF202229466C
:100340000AA803F092F930222946384603F08DF9C5
:10035000A26904F118039846B2B10426A26A04F116
:100360002803EAB10425EEB96FF0830630461FB0CA
:10037000BDE8F08F002EF1D053F8041D3246013E47
:100380000029F7D01646E9E70326F5E7002DEAD065
:1003900053F8041D2A46013D0029F7D01546E2E72F
:1003A0000325F5E730233A460021606803F0C0F9E1
:1003B0003028D9D14FF00109CDE90270334F0DF14A
:1003C000080A04F10C0B4E45D7F800141CD10DF1AE
:1003D00028094B46002008EB850EC64533D108B1ED
:1003E000C7F80014A3683146C7F804340AAA2B469C
:1003F00002A8FFF743FF00270646BD4209F108099E
:1004000038D1FFF71DFFB1E75BF8043FC1F580620B
:10041000D81C20F00300904204D9FFF711FF6FF0C1
:100420008C06A3E70844CA19C7F800044946606867
:10043000019203F07DF9019ACAF80C0009F1010953
:100440004AF8082FBFE758F804CFC1F5806A0CF1CD
:10045000030222F00302524503F1080305D878187D
:1004600043E9020C11440120B7E70028D5D0C7F8B2
:100470000014D2E7394659E90223606803F06DF9A8
:100480000137BAE76FF0850670E700BF200C002047
:1004900008B528220021024803F0E7F8002008BD33
:1004A000281000206FF0850070476FF085007047BE
:1004B0006FF0850070476FF0850070476FF0850022
:1004C00070476FF0850070476FF0850070476FF0E0
:1004D00085007047D1E9000103F0E6BA10B5044C7D
:1004E0000F222046034903F09BF8204610BD00BFB1
:1004F000511000202406000008B50121024803F035
:100500006DFA002008BD00BF50100020F0B5036850
:100510000546B3F57D7FA7B007D040F2F532934290
:1005200007D06FF0850027B0F0BD01F057FD002027
:10053000F9E700243C22214607A8CDE90244CDE991
:100540000444069403F091F83C22214617A816941F
:1005500003F08BF8AA69019405F1180302B304268D
:10056000AA6A05F128033AB30424731E012B52D85A
:10057000012C50D80423002168680DEB030203F01E
:10058000D7F804281AD06FF08000CCE7002EE7D00F
:1005900053F8041D3246013E0029F7D01646DFE726
:1005A0000326F5E7002CE0D053F8041D2246013C59
:1005B0000029F7D01446D8E70324F5E7022E16D118
:1005C0002E69402E29D806AF33463A460121686885
:1005D00003F0AEF88642D6D1CDE9027602A944B93D
:1005E0002246019801F00CFD044620469BE70021BD
:1005F000F5E7EB69402BC6D816AACDE9042301988C
:1006000004AA01F0FDFCDDE904230446002168682A
:1006100003F0A3F8E9E7012085E76FF0890082E79E
:10062000002070476D62656420544C5320332E3394
:100630002E3000000000000000000000000000005C
:08064000502E00000100000033
:1006500001F050BD0000000008B572B61E4A1F4BE5
:100660009A601F4B83F309881E4B83F30A8883F338
:100670000B881D4B16A1D1E90001C3E9000100F070
:10068000ABF81A4B1A498B4212D30020194B1A4966
:100690008B4218D302F000FF186850F822405868C7
:1006A00040F82240013298688242F5D30C33EAE7E1
:1006B0000022F8E71C6844F8220001325C68A2427C
:1006C000F8D30833E4E70022F8E700BFAFF3008077
:1006D000A5EDF5FEA5EDF5FE0000000000ED00E043
:1006E000F80B002000040020F80B0020440100005B
:1006F000680100006801000080010000EFF308803D
:10070000EFF309812DE9F00F6B46724600F04EF9C8
:1007100008B0FFF79DFFFEE74FF47F03D3F83001E9
:10072000D3F83431BFF34F8FC0F30B00A0F10903AE
:100730005842584170474FF47F02D2F83031D2F816
:100740003401BFF34F8FC3F30B03092B03D1431EB7
:1007500058425841704700207047000008B5EFF339
:100760001083012B0C4A07D1126ABFF34F8F511C23
:100770004A424A41104608BDFFF7CEFF00B172B6AB
:10078000126ABFF34F8F531C5A425A41FFF7C4FFFE
:100790000028EFD062B6EDE70080FF0008B5EFF368
:1007A0001083012B0B4A06D1D269BFF34F8F02F0A1
:1007B0000102104608BDFFF7AFFF00B172B6D26963
:1007C000BFF34F8F02F00102FFF7A6FF0028F0D021
:1007D00062B6EEE70080FF00694A10B5D2F8D0306B
:1007E00043F00203C2F8D030FFF796FF30B14FF06C
:1007F00050230022C3F81421C3F81821FFF79BFFF0
:1008000028B101225F4BC3F8382AC3F878254FF48A
:100810007F02D2F83031D2F83421BFF34F8FC3F3C7
:100820000B03092B05D1012A1EBF0122554BC3F82A
:100830007825FFF780FF18B10E22534BC3F8E42E42
:10084000FFF76AFF30B100224E4BC3F80C2701229C
:10085000C3F810270022D30003F57F03D3F8001359
:10086000BFF34F8F013108D0D3F800130132D3F812
:100870000433B2F5807F0B60EDD1EFF31084FFF706
:100880008DFF00284DD0BFF34F8F404BD3F800248D
:10089000012AFBD1C3F80425D3F80024012AFBD197
:1008A000012C03D0FFF738FF00B172B6FFF776FFD7
:1008B00058B1374AD36923F00103D361BFF34F8F97
:1008C000324AD2F80034012BFBD1FFF747FF68B161
:1008D0002F4A136A23F0FF0343F020031362BFF390
:1008E0004F8F2A4AD2F80034012BFBD1012C03D0C0
:1008F000FFF712FF00B162B60022244BC3F80425B3
:10090000D3F80024012AFBD1BFF34F8F1C49214BA0
:10091000CA6802F4E0621343CB60BFF34F8F00BF9D
:10092000FDE7FFF71BFF0028ADD1154AD2F88C3048
:1009300043F44063C2F88C304FF47F03D3F8302186
:10094000D3F83431BFF34F8FC2F30B02092A16D10B
:10095000013B022B02D8104AD35C83B10C480F49EB
:1009600003680A4A8B420CBF5A230023C2F8103E88
:10097000C36A8B420CBF5A230023C2F8003E10BD4D
:1009800000ED00E00040005000A003500090035034
:100990000080FF000400FA05B0310000FA50FA5060
:1009A0007C22014902F03CBEE018002038B51D460B
:1009B000364B374C5B68C3F308032360EFF30383C4
:1009C000C4E901206365C2F3801302F00C020C2A13
:1009D000E16036D10BB9EFF3898120222D482161E6
:1009E00002F01EFE25B1202229462B4802F018FEF7
:1009F000264B9A6AA265D96AE165986B206602F473
:100A000000406066586BA06602F08000E0669A6263
:100A1000D962D3F8E42021482267D3F8E81061674F
:100A200002F04001A167C3F8E4200E2100F046F86F
:100A30002268D31E042B1CD8DFE803F00F12151810
:100A4000090013B9EFF38881C7E70146C5E70E2116
:100A50001348BDE8384000F031B80C211148F8E7E0
:100A600012211148F5E70B211048F2E70D2110483B
:100A7000EFE70F2A98BF1421BDE8384089BF1E2137
:100A80000C480D48103A01F037BB00BF00ED00E004
:100A9000E0180020F418002014190020B3310000E1
:100AA000C1310000CF310000DB310000ED3100002A
:100AB000F8310000053200001932000000F000B8E3
:100AC00037B5084C6369984748B9E56AA847C30732
:100AD000FCD4236A019303B0BDE8304018470020DE
:100AE00003B030BD3832000010B5094C0020A368B7
:100AF0009847236902209847A46A4FF4E131012006
:100B0000A0472346BDE8104001211520184700BF2B
:100B100038320000064B82B01868002382B262F3BC
:100B20000F03000C60F31F43184602B0704700BF6C
:100B300080320000012070476FF0030070470023EF
:100B400082B00193019802B070476FF003007047C4
:100B5000002382B00193019802B07047022814BFAD
:100B60006FF0030000207047014B1869704700BF09
:100B700084100020014B5869704700BF841000208A
:100B800010B5044C204600F061FF002084F82000DE
:100B900010BD00BF8410002038B50C4D0C4695F8F0
:100BA000203013B94FF0FF3038BD0A4601462846C1
:100BB00000F0D2FF064B984205D00B3B9842F1D192
:100BC00000206C61F0E76FF00100EDE78410002079
:100BD0000B00AD0BF0B51B4E054696F820300C46C9
:100BE00091B01BB94FF0FF3011B0F0BD00F0604381
:100BF000B3F1005F21D100230A460146304600F0E0
:100C0000C5FC114B98421AD00B3B9842EAD1346193
:100C100011E0A71B402F28BF4027A9193A46684674
:100C200002F0FEFC39466846FFF7D4FF0028DBD10E
:100C30004036B442EDD80020D6E70026F9E76FF041
:100C40000100D1E7841000200B00AD0BFFF7C2BFFD
:100C5000C3B2012B10B540F096804DF6C0239942E7
:100C600070D028D8B1F5615F6FD011D8B1F5965F1B
:100C70006DD008D8B1F5966F6BD0B1F5166F6BD00B
:100C80006FF007005DE0B1F5165FF9D1454B33E039
:100C900047F61223994262D007D8B1F5964F61D03A
:100CA000B1F5E14FECD1404B26E0B1F5164FE7D15D
:100CB0004FF41D0320E03D4B994255D011D8B1F5BA
:100CC000E13F54D007D8B1F5614F53D0B1F5963F0D
:100CD000D6D1374B10E0B1F5613FD1D14FF06C73F5
:100CE0000AE0B1F5612F48D0324B994248D0B1F5B6
:100CF000E12FC5D14FF0E86310F4E06F46D110F456
:100D0000404103D0B1F5804F43D1102110F440523F
:100D100003D0B2F5805F3FD10E2210F4403003D0F3
:100D2000B0F5403F3BD10120234C20766276E36151
:100D3000A1760A4324681043C4F82435C4F86C052E
:100D4000002010BD4FF46503D6E71C4BD4E71C4BC5
:100D5000D2E74FF49E23CFE74FF41D23CCE74FF4A7
:100D60000003C9E7174BC7E74FF08063C4E74FF0B4
:100D7000EB73C1E74FF46B03BEE74FF07063BBE763
:100D80004FF08053B8E76FF00300DAE76FF0080028
:100D9000D7E76FF00A00D4E76FF00900D1E76FF0F2
:100DA0000B00CEE70050270000C0750090D0030074
:100DB00000903A0140420F008410002000F03A00F9
:100DC00000B0130000A04E0030B501EB820291424A
:100DD00000D130BD51F8044B04F07F037F2B4FEA64
:100DE000144408BF4FF0FF33032CF0D8DFE804F0C1
:100DF000020406080360EAE74360E8E78360E6E789
:100E0000C360E4E710B58EB02422002105A802F0EB
:100E10002CFC4FF0FF33CDE90133CDE903334FF024
:100E2000EB730B930723104C01A8D4E902128DF841
:100E30003630FFF7C9FF01460022204600F0F6FADF
:100E40000A4B98420DD10C9B002023831B0CA376E8
:100E50000B9BC4E90400E361012384F820300EB049
:100E600010BD6FF00100FAE7841000200000AD0B08
:100E70000346D0F8580130B931B9D3F82001003811
:100E800018BF012070470120704730B504460D4659
:100E900085B010220021684602F0E7FBD4E9001378
:100EA00068468DF80050984705B030BD7FB50446C0
:100EB0000E46154600211022684602F0D6FB01239B
:100EC00068468DF80030CDE90165D4E900139847F4
:100ED00004B070BD10B5044600F078FED4F8583167
:100EE00033B1D4F8043313F4800308BFC4F80035D9
:100EF000BDE8104000F072BE30B51546D0F80022B3
:100F000085B022F02002C0F80022114A0C46C0F839
:100F10000823FFF7DFFF002104F14C03A1602161EA
:100F2000D3E8EF0F20F47F0020F47040C3E8E20F15
:100F3000002AF5D11022684602F097FB0423684688
:100F40008DF800300195D4E90013984705B030BD05
:100F500010020A0070B50D4604460522AA21D0F8F9
:100F60003C65A86902F081FB0522AB69C4F8343501
:100F7000C4F838250022C4F81021D4F8101101213A
:100F8000E162D4F810110029FBD0C4F84C21D4F848
:100F90004C11C4F81021D4F81021D4F83C25964205
:100FA000EA6109D15A1E043312F8011FAA2903D19C
:100FB0009A42F9D10023EB6170BD000000F01F03DD
:100FC000400909D1074A02EB8303D3F80012064A0D
:100FD0000A40C3F8002270470022803352F82330C1
:100FE000FFDE00BF00258450F0F8FCFFD0F8583138
:100FF00033B1CB6CC3F30032DB0458BFC0F800251B
:10100000704700002DE9F04F82460D4601795020CF
:10101000DFF88C8185B000FB0180476800913FB10B
:1010200013F0020704D0836B002B00F0AC80012783
:101030004FF05009009B09FB0383DB6CD90600F1DC
:10104000A2804FF0010BAB180293029BAB4200F061
:10105000A38005F0604303939AF80460DAF8004037
:1010600009FB06839A6B9AB9039BB3F1005F40F0CA
:101070009580019200F0AAFD09FB0682D16C204602
:1010800001F00101FFF7F4FE28B900F0A7FDE3E746
:1010900001230193EEE7516C2B460029BCBFD4F825
:1010A0004C155164019A42B109FB06822878D2E9B5
:1010B0000E13C854D2E90E3213441BB1C4F84435A0
:1010C000C4F848B50022C4F82021D4F82011C4F88F
:1010D0005821D4F85811C4F85021D4F850210822CE
:1010E000C4F80025EFB14FF48003C4F80433C4F80A
:1010F00008B000F073FD5022009B5A4308EB020336
:101100005968002946D1DB6C1B0743D5254B134496
:10111000D3E8EF1F21F00801C3E8E21F002A32D014
:10112000F6E7C4F808B0019300F058FD09FB068209
:10113000D16C019B01F0010120460193FFF798FE5D
:101140008446019BD4F84C05D4F84425BCF1000F2B
:101150000BD19342F0D009FB0686C1B100F036FDF9
:1011600031462046FFF742FFC3E7934209FB06865C
:10117000F3D10028F1D100F029FD31462046FFF7D8
:1011800035FF00F02BFD084805B0BDE8F08FC4F82E
:101190000CB0E3E7013558E70448F5E70448F3E706
:1011A0005C190020A81900200800AD0B0000AD0B51
:1011B0000400AD0B430904D10123034A834093602B
:1011C000704700239B60FFDE0025845000F01F0362
:1011D00040090BD1084A02EB8302D2F80012074BF8
:1011E0000B4043F00303C2F8003270470022803303
:1011F00052F82330FFDE00BF00258450F0F8FCFFDA
:101200002DE9F84391F8303005460C4690F80480FB
:101210000F6853BB5023DFF85091781C03FB0893F1
:10122000DE6C46F00072DA6404D03846FFF7C2FF85
:10123000FFF7CCFF6068411C01D0FFF7BFFE94F8B8
:101240002C30012B11D1502303FB0893E06846F0AA
:101250002066421CDE6401D0FFF7B0FEA068431C8C
:1012600003D0FFF7A7FFFFF7B1FF94F82F0038B9BD
:1012700050223D4B02FB0833DA6C42F08072DA6494
:1012800094F82CC094F82D1094F82E202B68D4F8E4
:1012900028E041EA0C010A43E668D4E90198C3F862
:1012A00024E5C3F86C2550B9BCF1010FC3F80C75E7
:1012B000C3F8149504BFC3F80885C3F81065D3F8C4
:1012C000682503F26458012A08BFDA60D3F8642560
:1012D000012A13D1082149F64046244FC3F80015CE
:1012E00047F001075A60D8F800309BBB2B68D3F851
:1012F0008024C3F880240022C3F8002500212B6835
:1013000094F83220C3F81011D3F81001C3F820115B
:10131000D3F82001C3F82411D3F82401C3F84411F1
:10132000D3F84401C3F85811D3F8581143F30733E5
:101330005201002BD2B212DB0D49C81880F80023ED
:101340000122580903F01F0302FA03F341F8203089
:10135000BDE8F8834020B847013EC4D1C6E705493F
:1013600003F00F03CA54F3E75C1900209032000029
:1013700000E100E014ED00E000F01F0340090BD194
:10138000084A02EB8302D2F80012074B0B4043F0ED
:101390000203C2F8003270470022803352F8233033
:1013A000FFDE00BF00258450F0F8FCFF70B5CE6C66
:1013B0000D4606F001010446FFF75AFD38B94FF417
:1013C000800346F00406EE64C4F8043370BDD5E92A
:1013D0000A365AB1296CEA6B761A964228BF16462D
:1013E00019443246A86B02F01BF9AB6B4FF0FF3289
:1013F0006A641BB1C4F84435C4F848650023C4F8D6
:101400002031D4F82021C4F85831D4F85821C4F838
:101410005031D4F850310823C4F800354FF480031C
:10142000C4F804330123A360D0E700002DE9F3479B
:101430009146502206794F4C02FB06FA04EB0A084B
:101440000D4698F84810074600297FD1404602F023
:101450000CF92B69AA6944F80A306B69C8F838306E
:1014600002B1013A502303FB0643DA632A6A042AD5
:1014700081BFEA699A610022DA6195F83130B9F1E9
:10148000000F37D083F001084FEA082833B150230A
:1014900003FB0643DA6C42F00102DA64502303FBDB
:1014A00006440123C4F8049084F848303C68D4F81A
:1014B0004C210ABB29463846FFF7A2FE082200232A
:1014C0003C688DF80730C4F800250DF10702C4F818
:1014D0004425C4F8483501230A25A360E360D4F805
:1014E0005831ABBB244B402043F001039847013DEA
:1014F000F5D125E0C846C9E708226426C4F80025CE
:1015000063601D4B43F0010AD4F84431E3B9D4F8C9
:101510002431CBB94FF42070D047013EF4D10023E1
:10152000C4F84C31D4F84C21C4F81031D4F810214F
:10153000C4F84431D4F84421C4F80035002EB9D1A0
:101540000E4802B0BDE8F0870126E8E70C48F8E74E
:101550000023C4F820319945D4F82021C4F800357F
:10156000084B08BF00233A6848EA03030648C2F85C
:101570000433E6E75C190020903200000100AD0B57
:101580000500AD0B10020A000000AD0B2DE9F0477D
:1015900084460E469E46154690F80480002A4FD099
:1015A0004FF0500A294FD0F800900AFB087ADAF879
:1015B000044074B96BB9DAF82C60002E42D1CAF835
:1015C0002C20FFF71FFD0446CAF82C602046BDE81A
:1015D000F0871EF0030F07D073462A463146BDE858
:1015E000F0476046FFF70EBD06F06043B3F1005FC1
:1015F0004FF0500413D104FB087400F0E7FAE26ADC
:101600001AB1134C00F0EAFAE0E7C4E90A65502188
:10161000484601FB0871FFF7C9FE0E4CF2E704FBD8
:101620000874A36B83B100F0D1FAE36A002BE8D110
:10163000E36C012243F00203C4E90A65E364E6E7D0
:10164000054CC3E7024CC1E7044CBFE75C1900201E
:101650000B00AD0B0000AD0B0600AD0B0A00AD0B8F
:101660002DE9F843502690F80480264D06FB08F635
:101670000468AA19D4F80473D36AC4F8087323B9A8
:101680002148C4F80473BDE8F88305F14C033344E2
:10169000D3E8EFCF4CF0080CC3E8E0CF0028F7D137
:1016A0000123E36029B3D16C01EA030949462046CE
:1016B000FFF7DEFB0028FAD000F088FAB9F1000F3E
:1016C0001BD1D4F820314BB10123E360D4F8583159
:1016D000002BFBD02046A919FFF788FC00F07EFA0A
:1016E0000023C4F82031D4F82021502202FB0855F1
:1016F000EB620648C4F80473C5E7D4F85831002BF0
:10170000E8D1EBE75C1900200500AD0B0000AD0B44
:1017100050222DE9F04107793A4E7A43046802F1EC
:101720004C053544D5E8EF3F43F48050C5E8EC0F55
:10173000BCF1000FF6D1DB0460D4480703D5B31821
:101740009B69002B5CD0304BC4F808330823C4F8E5
:1017500000350023C4F81031D4F81001C4F84C311E
:10176000D4F84C01C4F844310803D4F844318B0355
:1017700003F4804300F400504903034301F40041A3
:101780000B43D5E8EF1F1943C5E8E01F0028F8D147
:101790004FF0500808FB0768D8F80830BBB9D8F8F4
:1017A000043063B9D5E8EF3F23F47F0323F470439B
:1017B000C5E8E23F002AF5D11448BDE8F0810321D5
:1017C000B018FFF762FBD8F80830002BEAD050239E
:1017D00003FB0763DB6CDB0401D40D48EDE7D4F8B1
:1017E0004C310BB901232360502303FB07635B6873
:1017F000002BF2D0044BC4F80433EEE70548DCE7D5
:101800000548DAE75C19002010020A000200AD0B5F
:101810000000AD0B0B00AD0B0800AD0B2DE9F84F30
:10182000056801F06043D5F80493B3F1005F90F8C8
:1018300004A088461646C5F8089340F085805023DA
:10184000434F03FB0A739A6852B15B68002B66D161
:10185000D5F81021002A62D0C5F81031D5F8103122
:101860004FF0500B0BFB0AFB07EB0B04E269C4E9DA
:101870000286002A36D0964222D200273246A1693B
:101880004046C4E9027701F0CBFEE269A069921BF1
:101890008119E26101F08EFE636863B12046324631
:1018A0004146FFF703FBE36C980404D53A46214612
:1018B0002846FFF721FB2748C5F80493BDE8F88FB9
:1018C000A169404601F0ACFEE36963620023E36175
:1018D000D5F80433590717D56368ABB10621204604
:1018E000FFF7D3FA502303FB0A73586ADA68996842
:1018F000DB6C121A0144C5F83415C5F83825DA0432
:10190000D9D501232B60D6E7134B5B44D3E8EF1FF7
:1019100041F40021C3E8E21F002AE3D0F6E7502398
:1019200003FB0A773B698BB9FB6CC5F834855B0414
:10193000C7E90486C5F83865BDD5D5F8003243F04F
:101940002003C5F80032B6E70448B5E70448B3E71A
:101950005C1900200000AD0BA81900200A00AD0B97
:101960000B00AD0B50232DE9F041344D90F804806D
:10197000046803FB0853DB6CD4F8000203F48223F1
:10198000B3F5805F58D1D4F80463C4F8086309B98B
:10199000830646D4D4F8003223F02003C4F8003282
:1019A0004FF48423502101FB08F101F14C072F442F
:1019B000D7E8EF0F1843C7E8EC0FBCF1000FF7D1E1
:1019C00012B96B185B68A3BB1D4BC4F80833012325
:1019D0006360D4F84431002BFBD0502303FB085341
:1019E000DA6C12F400421FD1DA612046FFF772FA76
:1019F000502303FB08550023AB602B61D7E8EF3F72
:101A000023F47F0323F47043C7E8E23F002AF5D1B3
:101A100026F4202626F404760A48C4F80463BDE8B8
:101A2000F0814FF48033BDE720462944FFF792FA56
:101A3000DBE701236360EFE70348F0E75C19002070
:101A400010020A000000AD0B0500AD0B2DE9F843B4
:101A50002F4A03680679C3F8082343F30733002BA2
:101A600004460DDB01215A0903F01F03994002F1DE
:101A70002003284A42F82310BFF34F8FBFF36F8F24
:101A8000012220461146FFF76DFF01212046FFF796
:101A9000E7FD50212279204D236801FB0252D46CCE
:101AA000D3F80C05E201D3F81495D3F80875D3F8F0
:101AB000108509D54FF0FF32C3F80C25C3F8142563
:101AC000C3F80825C3F81025A30116D5411C01D081
:101AD000FFF752FCB9F1FF3F02D04846FFF74CFC3C
:101AE00022010AD5B8F1FF3F02D04046FFF744FC7F
:101AF0007B1C02D03846FFF73FFC5023002203FB3B
:101B00000653DA6483F848205A60BDE8F88300BFC2
:101B100010034A0000E100E05C19002010B55024D9
:101B20000279094B04FB02335B684BB90368D3F8B5
:101B300010213AB111B1D3F83C350B60034810BD08
:101B40000348FCE70348FAE75C1900200000AD0BEE
:101B50000800AD0B0B00AD0BF7B505461646FFF7B9
:101B60005DFE164B0446984222D1032128462F7968
:101B7000FFF7CEFD124B984201D0A0421BD150225C
:101B8000104B02FB07335B6893B90C4C284601A944
:101B9000FFF7C4FFA042F9D1019BB34207D3012252
:101BA0002846114603B0BDE8F040FFF7DBBE064C07
:101BB000204603B0F0BD0446FAE700BF0000AD0BBD
:101BC0000B00AD0B5C1900200800AD0B72B6024A89
:101BD0001368013313607047AC190020034A13687F
:101BE000013B136003B962B6704700BFAC19002017
:101BF000003A18BF0122003918BF0121036889008B
:101C0000074841EA4201186359605A6842F00102EC
:101C10005A60BFF34F8FBFF36F8F0020704700BF34
:101C200004AAFF004B6830B513F01F052DD10268E0
:101C30000C681068C0F30720844226D250685560B3
:101C400094600C7C23F01F0304F001041C438B7C84
:101C5000DB0003F018031C434B7C5B0003F006031E
:101C60002343D3608B68013B23F01F04CB685B00E8
:101C700003F00E03234343F0010313615060BFF3ED
:101C80004F8FBFF36F8F284630BD0120FCE70368FC
:101C900000205A68C9B258609960D86018615A60CB
:101CA000704770B50546002403681E68C6F3072612
:101CB000B44201D1002070BD21462846FFF7E7FF5E
:101CC0000134F5E70722024BC3F80423704700BF35
:101CD00000300050084BD3F80001D3F8042100383D
:101CE00018BF01200AB140F00200D3F808310BB14F
:101CF00040F00400704700BF003000500022074B46
:101D0000C3F80021D3F80011C3F80421D3F804115B
:101D1000C3F80821D3F80831704700BF00300050E5
:101D200000231720094A03F5C0710133202B42F824
:101D30002100F8D100231720044A03F5E071013394
:101D4000202B42F82100F8D1704700BF003000502E
:101D500010B59DF80840C00B43EA0423064CC90B9C
:101D600043EA0213884200D910BDC2B202F5C07224
:101D700044F822300130F5E70030005010B59DF8EE
:101D8000084000F1604043EA042301F16041074C40
:101D9000400B490B43EA0213884200D910BDC2B27E
:101DA00002F5E07244F822300130F5E700300050CF
:101DB000C0F30E03C3F50043B3FA83F3C3F11B036F
:101DC000064AC0F3C730DBB240F4807043F480733E
:101DD000C2F80005C2F80435704700BF003000505B
:101DE000C0037047C00300F5FF407F3070470020FC
:101DF00070471F2070474FF40040704700F57F4048
:101E0000C030400370470000430301481844704746
:101E1000FF1FF81F402070475F2070474FF40050AD
:101E200070470000044B090241F0300100F50070DA
:101E300043F82010704700BF00300050034B0902E8
:101E400000F5007043F82010704700BF00300050CC
:101E500008B5FFF73FFF044B202118600348BDE899
:101E60000840FEF72BBE00BF002400209632000081
:101E70000422014901F0D4BB0024002008B500F081
:101E80000AFE68B901F088FE58B9074AD36823F002
:101E900008031B041B0C43F0BF6343F40033D360FF
:101EA00008BD45F22350FBE700ED00E0002070473D
:101EB00008B500F075F8BFF34F8F0549054BCA68A8
:101EC00002F4E0621343CB60BFF34F8F00BFFDE726
:101ED00000ED00E00400FA05002070470020704784
:101EE00070470000024B1860024B002019607047D9
:101EF000082400200424002013B5274C42692368DD
:101F00005A6282699A62C269DA62026A1A63426A32
:101F10005A63826A9A63C26ADA63026B1A64426B1A
:101F20005A60826B9A60C26BDA60026C1A61426C12
:101F30005A61826C9A61C26CDA61026D1A62826DBA
:101F40005A65C26D9A65026FDA65026E1A66826E14
:101F50005A66426F9A66EFF388825A64EFF3898279
:101F60009A644268DA64EFF394821A65026801A801
:101F70001A67FFF77DFF2368019ADA6601221A705B
:101F8000064B1C686408640020462146224623460E
:101F900004F0DCFB02B010BD082400200424002063
:101FA00000B5A1B001A8FEF7FBFC029B73B15A0675
:101FB0000CD4019A132A09D8064BD340DB0705D568
:101FC000054B1B6813B101A8FFF796FF21B05DF820
:101FD00004FB00BFA000080004240020BFF34F8FC3
:101FE0000549064BCA6802F4E0621343CB60BFF3B5
:101FF0004F8F00BFFDE700BF00ED00E00400FA05D1
:102000000B4670B5114618B1032806D0032070BDE9
:102010001846BDE8704000F02BB85A68082A01D075
:102020000220F4E74C68042CFAD11D684FF0FF330E
:102030000E68296833600029F2D06B68002BEFD05E
:1020400026237422012000F005FC0028E8D1224656
:1020500023230120696800F0FDFB04460028DFD13E
:10206000D5E90001FFF73EFF30602046CFE70000D2
:1020700038B543680C2B30D14B68042B2DD14FF071
:10208000FF3304680D6821682B6031B3A26822B366
:102090000623012000F0DEFBF8B96168104B99427D
:1020A0000DD9A2680F485318834202D9F4388342ED
:1020B00010D8206801F0B4FA0020286038BD0A4B1F
:1020C00099420AD9A26809488B188342F1D907308E
:1020D000814202D906488342EBD90220EEE700BFD5
:1020E000FF01FF002C02FF002F01FF003801FF005D
:1020F0004C01FF00FFF7DCBE30B50C46154685B03D
:1021000038B139B1FEF7DAFC041E03DA204605B017
:1021100030BD044640F60D23ADF80E3009230B49BF
:1021200001A805F00F028A5C2D091A54013B012B0E
:10213000F7D147F630030C21ADF80430FEF7BEFCB2
:102140000028B4BF04462418E0E700BFB632000000
:1021500008B5154B83F30A88144800F087FC58B97A
:10216000FFF78CFE40B9FFF7A1FE28B9FFF7B4FED8
:1021700028B1FFF7B3FE20B1FFF7BCFF09E0FFF77E
:10218000AFFE00F017FB35210948FEF797FC00F081
:1021900069FD21210748FEF791FC00F0F7FA00F0F5
:1021A000BFFA002008BD00BF00040020B0190020C5
:1021B000C6320000FB3200008230012808B506D884
:1021C00000F06AFE18B9BDE80840FFF793BF08BDEC
:1021D000F8B506460D4600F04BFE044608B9FFF779
:1021E00089FFA7680FB9FFF785FFE368991C20D026
:1021F0005A1C21D1A5B315F1820F13D102232360FC
:10220000EFF3108672B62946204600F00BFA054619
:1022100086F310882368022B24D1204600F0AEFDFF
:102220002846F8BD15F1830FEAD0FFF763FF0025BC
:10223000E6E702232360FAE7002BF6DB204600F0F6
:1022400083FE3B689B689B0501D50223236015F143
:10225000810FD5D16369002BD2DBFFF74BFFCFE7AE
:102260003546F4E700232360DAE700002DE9F04F5C
:102270000E4699B004930446904600F00DFE784B4C
:102280000746D3F800A0F3B203933314C6F307252F
:10229000059304D56FF0800019B0BDE8F08F039B63
:1022A000EB18042BF6D8002CF4D000F003FE6300EA
:1022B0000690EFD56B4B04F01F0253F82260002EFE
:1022C000E8D033683A463146586800F08DFD002862
:1022D00040F0BF803046C4F3072100F073FD0028B2
:1022E000D8D1EFF3108772B600F02AFD044687F3C9
:1022F0001088002800F0B08000F00AFD4FEAC50900
:10230000079002234A464146DAF8080000F0A2FA94
:102310000028BFD1039B0499DB000293029A062395
:10232000DAF8080000F096FA07460028B2D1202219
:1023300000210DEB020001F098F92022002110A8E5
:1023400001F093F94A46414608A801F069F90DF1F8
:102350002009029A049910A801F062F9CB464FF0C7
:102360000008A8452ED1002208AB013295424CD876
:102370000DF14008C346039B9F4249D1069B20466E
:10238000079A00933146059B00F050FD224604EB6E
:10239000850504F114031435C4F10800AB4209F1BA
:1023A000080943D10025029B04F1240123449A42E9
:1023B00008F1080843D1049B21463046A36700F08A
:1023C00009F969E7DBF8042002235BF8081BDAF857
:1023D000080000F03FFA00287FF45CAF08F1010824
:1023E000BFE7D1F80880C868D3F800C040448445EE
:1023F00004D258688444E045FFF44CAF0EF1010E5E
:102400000831AE45EDD10833AFE719469646F8E7F7
:10241000DBF8042006235BF8081BDAF8080000F05C
:1024200019FA00287FF436AF0137A4E759F8041CE5
:1024300043F8041F59F8081C40F81310AEE758F889
:10244000040C41F8040F58F8080CC2E916050832CC
:10245000ADE76FF081001FE76FF082001CE700BF5F
:10246000B4190020D81D002040F20110704770B54B
:10247000054600F011FD0646284600F08DFC044696
:1024800008B9002070BD01463246284600F0ACFC79
:102490000028F6D12368D868F4E700002DE9F0475A
:1024A00099461B4B0E469046D3F800A000F0E0FC86
:1024B000044608B9FFF71EFEE368002B01DAFFF7B8
:1024C00019FE032E01D9FFF715FE04EB8607BD693F
:1024D000DDB106234A464146DAF8080000F0BAF9B1
:1024E00008B1FFF707FEBB694D46994528BF1D4659
:1024F00004EBC6042A464046A16B01F091F8A36B99
:102500002B44A363BB695B1BBB612846BDE8F08716
:10251000B41900202DE9F8431D461A4B0F4690468A
:10252000D3F8009000F0A4FC044608B9FFF7E2FDE0
:10253000E368002B01DAFFF7DDFD032F01D9FFF778
:10254000D9FD04EBC70604EB8704A36AF26D9B1A5E
:10255000AB4201D2FFF7CEFD02232A464146D9F80D
:10256000080000F077F908B1FFF7C4FDD6E91603BB
:102570002A461844414601F053F8F36D2B44F365A5
:10258000BDE8F883B41900202DE9F04105464FF06D
:1025900001080E4E0E4B37685C681CB92846376040
:1025A000BDE8F0812268936813F400700CD1A36930
:1025B000012B09D0D368346023B19847002801DA91
:1025C000FFF798FDC4F81880246AE6E7B4190020E4
:1025D000B819002070B505460C4611B96FF080009F
:1025E00070BD0028FAD00368002BF7D04668002E93
:1025F000F4D00B4BB069F1611E6020B93368DB6821
:102600004BB90123B3612B6804F10C001B69984797
:1026100001232360E4E798470028F2DADEE700BFF1
:10262000B41900204268024B08461A60704700BF88
:10263000B4190020002230B505680446AB68C0E933
:102640000622590587B023D503F44063B3F5406FE4
:1026500002D100F047FA02462B69A96A68460B448A
:10266000073123F0070321F00701CDE9021300939E
:10267000002301930493A3F11133023B0549059311
:10268000EB6800F011FB684600F038FB024B1C6061
:1026900007B030BD89250000B41900206FF002009A
:1026A00070470000F8B501F00C030C2B0CBF154669
:1026B00005464A060C4601F008061AD58B0658BF97
:1026C0002835AB6913F8027CB6FA86F35B09B3EBE5
:1026D000D71F01D0FFF70EFD402F19D0412F0DD18C
:1026E00000F0F8FB044601460B4800F0D9FA2046FA
:1026F000F8BDFFF7FFFC0EB9FFF7FCFC20210748EF
:10270000FEF7DCF96FF083002860FFF755FDEEE778
:10271000284600F0ADFAEAE7F80B00201C33000071
:1027200041DF7047EFF308807146EFF30982EFF362
:102730000B830CB406B4FFF7B5FF864606BC0CBC91
:1027400000F0080001F00801401A01DC12DB7047BC
:102750000CB41EF020031CBF2DE9F00FBDF1080DD5
:10276000094C254626462746A046A146A246A34632
:1027700030B4704730BC1EF020031CBF1DF1080DA3
:10278000BDE8F00F06BC7047A5EDF5FE084BDA6812
:1027900082F07F4282F47F0242F48042DA600022BB
:1027A0001A765A76DA76DA77602283F82220704732
:1027B00000ED00E070470000009A0A4B9A420FD1EA
:1027C000012290430146024603460446054606465A
:1027D00007468046814682468346844686460447AD
:1027E000FEE70000A5EDF5FE2DE9F041044618B91D
:1027F00043F6DA30BDE8F0810029F9D000254FF02A
:1028000014088368124EC3F3802343F002030B6065
:1028100000F13007236AAB4201D80020EAE7A36940
:10282000E26907EB830308FB02330C226A43991821
:102830008968090709D59B58B342D9D1306820B1BE
:102840000121C0F30730FFF7EDFA0135E2E700BFE1
:10285000AC1000202DE9F0410E461546002A4AD062
:10286000C4074BD480F00204C4F34004A40003F076
:102870000602062A4AD144F001042246294630467F
:1028800003F000FFB8BB46E800F205EB0608100EA7
:10289000120208F1FF3747E800F34FEA136166D5EB
:1028A0001B0264D5884262D046E800F547E800F78D
:1028B000FFF79DFA2D0E85424FEA176734D3FFF7D5
:1028C00098FA874230D82846FFF78CFA2246C6F19C
:1028D00001010144304603F0D5FE002847D0013500
:1028E000AF4218D83846FFF77BFA2246A8EB000122
:1028F00003F0C8FED8B30020BDE8F081EFF3948464
:10290000A40004F0040444F01204B0E7990731D5A0
:1029100044F00804B1E72846FFF762FA0646FFF7DD
:102920006AFA22460146D5E7FFF774FA85421ED3BC
:10293000FFF772FA87421AD82846FFF765FA22464F
:10294000C6F101010144304603F09CFE78B1013527
:10295000AF4203D83846FFF751FAC6E72846FFF7DB
:102960004DFA0646FFF75AFA22460146EBE76FF0AA
:102970007F00C1E74CF2DA20BEE7000070B5324CB0
:1029800086B03248FFF78DF9236801255A1C019360
:102990002F4B2260DA681B694FF4407603930023C3
:1029A0002A4801A902920495ADF814608DF81630FA
:1029B000FFF738F918B143F6DA3006B070BD236876
:1029C0008DF816005A1C0193224B20480293224B8B
:1029D00001A9CDE903352260ADF81460FFF722F9B3
:1029E0000028E8D123688DF816005A1C01931B4B70
:1029F000164802931A4B01A9CDE903352260ADF8C0
:102A00001460FFF70FF90028D5D123688DF8160060
:102A10005A1C0193134B0D480293134B01A90393C6
:102A20000223049340F201132260ADF81430FFF743
:102A3000F9F804460028BED12A4629460348FFF784
:102A4000D7F82046B9E700BFC0190020A810002021
:102A50005C33000080330000606900004006000025
:102A600040060000000C0020200C002010B5044699
:102A700000F0A0F800F0AEF810B143F6DA3010BD67
:102A800000F0CAF80028F8D1FFF778FF0028F4D149
:102A900002232360F3E708B500F048F810B143F6CD
:102AA000DA3008BD00F04CF80028F8D100F054F8F6
:102AB0000028F4D162B6FEF717F800F04FF80028AE
:102AC000EDD100F06BF80028EBD0E8E7014B186877
:102AD000704700BF5C330000014B1B6818687047EB
:102AE0005C330000014B1B68586870475C33000082
:102AF00008B5FFF7ADF9FFF701F90822034BC3F85A
:102B00008021BDE80840FFF7F5BA00BF00E100E012
:102B1000EFF30880EFF309812DE9F00F6B46724661
:102B2000FDF744FF08B0FFF7E3FFFEE70020034B8B
:102B3000D8765A6A42F470225A62704700ED00E07B
:102B40000349044BCA68002092B21343CB6070471C
:102B500000ED00E00800FA050020704700224FF069
:102B6000FF300D4B02F1A0010132102A43F8210081
:102B7000F8D1D3F88022002022F00802C3F8802286
:102B8000D3F88022D3F8802222F40072C3F8802286
:102B9000D3F88032704700BF00E100E008B5FFF7CE
:102BA00091F80822024BC3F880211A60002008BD6A
:102BB00000E100E0064BD3F8D02022F00102C3F878
:102BC000D020D3F8D02042F00202C3F8D0207047C2
:102BD00000ED00E037B501250C4CFFF7A1F8D4E972
:102BE0000101072300220095FFF7B2F80723002216
:102BF000074908480095FFF7C1F82169E0680139E5
:102C0000FFF7D6F8002003B030BD00BF5C330000F2
:102C1000FFFF03200080002038B500240E4D002166
:102C200015F8010B0134FFF709F91D2CF7D100202D
:102C3000012240F20111094BC3F88004C3F8842437
:102C4000C3F8C004C3F8C424054AC2F840154FF4C1
:102C50008072C3F8402438BD3C330000003000507F
:102C6000009003500122014B1A607047C4190020E4
:102C700010B50446084B22891868616806238068ED
:102C8000FFF7E8FD28B9054B1B68012B01D100F0C7
:102C9000E3F80323236010BDB4190020C4190020F9
:102CA00004460D46A54628472DE9F84304461E462E
:102CB0000068114B9046A268A0F1080540E9023374
:102CC000503890420F4601D2FFF714FAA5F1480997
:102CD00048220021484600F0C8FC4FF0807345F8B8
:102CE000043C6FF0020345E9036745F8208CC4E912
:102CF0000093BDE8F88300BFA5EDF5FE836883F37C
:102D00000B880368283383F3098840687047000004
:102D1000054A1368013303F007031360034A0133C4
:102D2000801A03EBC0007047C8190020CC1900209E
:102D300018B1024B013803EBD0007047CC190020CA
:102D400010B5064800F0FFF9044628B17C220021A6
:102D500000F08BFC00232360204610BDCC1900201E
:102D6000014608B5044800F0FFF900280CBF6FF0D9
:102D7000FC00002008BD00BFCC190020014610B5A2
:102D8000EFF3108472B6034800F0E8F984F310887A
:102D900010BD00BFCC19002030B5094C0246616857
:102DA0000023084640B105686D68954205D11BB106
:102DB000826860609A60816030BD03468068F1E798
:102DC000581E002003689A68DB6812F4806F05D1F2
:102DD0008B422CBF00206FF0FA0070478B420CBF73
:102DE00000206FF0FA00704738B504462AB10B682E
:102DF0009B68DB0512D5002038BD0B4B1D680DB953
:102E0000FFF778F900222B6899692C338A4203D0A6
:102E100053F8040FA04204D19142ECD16FF0FC00B2
:102E2000EAE70132F2E700BFB4190020F8B5044622
:102E30001E460F46154600212C220C3000F015FCD2
:102E4000044BC4E903651B68A7606360069B63616C
:102E5000F8BD00BFB4190020044B1B681BB11B68F0
:102E60000BB1586870474FF0FF307047B41900201D
:102E700010B5FFF75DFF0446FFF772FF50B9FFF78B
:102E8000EBFFA3685B681B685B68834218BF002484
:102E9000204610BD0024FBE7054B10B51C680CB99B
:102EA000FFF728F923689868C0F3802010BD00BFA1
:102EB000B419002038B5054648B100F069F9B5EB02
:102EC000D07F044601D0FFF715F9204638BDFFF743
:102ED000C3FFF4E72DE9F04108237C2240F20C41C6
:102EE000154800F002F90023144E154F73607B6003
:102EF00000F052F9DFF84C80304600F037F8044615
:102F0000A8B139468023424600F094F80546204691
:102F100000F0EAF8206804F10801FFF765FC08B149
:102F2000FFF7E8F829462046FFF784FBE4E7BDE811
:102F3000F041FFF7B3BB00BFCC190020B819002047
:102F4000581E0020D81D0020002330B500F12802B3
:102F5000C0F1040452F8041B21B1816F54F81250DF
:102F600019444D600833202BF4D130BDF8B5054627
:102F700008B9FFF7BFF82A4E346814F1290F4CD86E
:102F8000284B196804F128038B4246D2236AA269B0
:102F900003EB43030C321344606AE269024402EB20
:102FA000820213449B00E31801D2994201D2FFF739
:102FB000A1F823681C4A1B0C1B04934201D0FFF7A5
:102FC00099F82388B3F5817F01D3FFF793F86368FD
:102FD000002B01DAFFF78EF8144A176807F1240373
:102FE0001360134A1268934201D9FFF783F8236AEA
:102FF000A26903EB43030C32616A1344E2693C604B
:103000000A4402EB82021344326802EB83026B68CB
:1030100032603B626F603846F8BD0027FBE700BFB7
:10302000BC1000207833000000005F5FB810002063
:10303000743300002DE9F74F0F4690460646009383
:1030400000B109B9FFF756F8D6F800A0DAF8182051
:103050000AF1300303EB820BDAF81C40204B1D68A9
:1030600054B10C2202FB04541C601E4B1B689C4292
:1030700001D9FFF73FF82C4625464FF00009DAF852
:103080001C204A4500D91CB9002003B0BDE8F08FD0
:10309000142303FB09B20023C5E900269268AB6044
:1030A000930516D5B8F1000F02D0009B802B03D0FA
:1030B0000192FFF71FF8019A12F0E00FD0B202D18F
:1030C00058F820201AB10190FFF714F8019848F839
:1030D00020507A6809F10109AA607D600C35CEE7BD
:1030E000B41000207033000070472DE9F8430D46FE
:1030F00017461E46044618B313B302F1040903FB36
:1031000009F808F10C038B421AD10A46002100F09D
:10311000ACFA002004F10C031A46014601318E423C
:10312000106002EB090C104608D10020A8EB09083A
:103130004344C4E90037A560BDE8F8836246EDE783
:103140006FF0F800F8E7034638B1006828B102686C
:103150001A60002340F8043B7047704702680B1F59
:1031600041F8042C0360704700F10C0399420DD321
:10317000C91A83688B4209D943680433B1FBF3F25F
:1031800003FB1210031F584258417047002070473C
:103190004FF0FF307047000008B5FFF797FC034B76
:1031A0009860FFF799FC80F3888808BD00ED02E085
:1031B000000001464154414C204552524F523A20A2
:1031C000005365637572654661756C740D0A00483D
:1031D0006172644661756C740D0A004D656D4D61D8
:1031E0006E616765206661756C740D0A00427573C7
:1031F0004661756C740D0A005573616765466175AB
:103200006C740D0A005265736572766564204578AA
:1032100063657074696F6E2000506C6174666F72C4
:103220006D2065787465726E616C20696E7465726C
:10323000727570743A200000150B0000350B000009
:10324000050E0000810B00005D0B00004D0C00001E
:10325000990B0000390B0000690B0000750B000092
:10326000510C00003F0B00004B0B0000510B000005
:103270001D000000100002001C00010011000300EE
:103280000302020200000000000000000000000035
:103290000338FDD87047506C6174666F726D2045BD
:1032A0007863657074696F6E3A205350552046619B
:1032B000756C740D0A003031323334353637383995
:1032C0004142434445461B5B313B33346D5B5365A0
:1032D00063205468726561645D205365637572652F
:1032E00020696D61676520696E697469616C697ACE
:1032F000696E67211B5B306D0D0A001B5B313B3330
:10330000346D426F6F74696E672054462D4D207680
:10331000312E382E301B5B306D0D0A00556E6B6EF2
:103320006F776E20535643206E756D626572207202
:103330006571756573746564210D0A000405080ADA
:103340000B0E0F1011141517181B1C1D1E1F20210A
:1033500022232426282A39423A0000000080000057
:1033600000800000FFFF0F00007C000000800000D4
:0C337000441200202C1200203C0200003F
:10338000009A1F4B9A4208D110B500F08DF900F059
:10339000BDF806BC96460C4674470FDFFEE7009A60
:1033A000174B9A4208D110B500F08AF900F0AEF838
:1033B00006BC96460C4674470FDFFEE70CB4029A33
:1033C0000F4B9A4209D10CBC10B500F087F900F000
:1033D0009DF806BC96460C4674470FDFFEE7009A40
:1033E000074B9A4202D10749086874470FDFFEE78E
:1033F000009A034B9A4200D174470FDFFEE70000AA
:10340000A5EDF5FE801000200348044B834202D056
:10341000034B03B118477047A4110020A4110020EA
:10342000000000000548064B1B1AD90F01EBA30151
:10343000491002D0034B03B118477047A411002074
:10344000A41100200000000010B5064C237843B9F9
:10345000FFF7DAFF044B13B10448AFF300800123F8
:10346000237010BD44120020000000004C690000D1
:1034700008B5044B1BB104490448AFF30080BDE814
:103480000840CFE700000000481200204C6900000F
:10349000A3F5803A704700BF174B002B08BF134BB2
:1034A0009D46FFF7F5FF00218B460F461348144A4F
:1034B000121A00F0DAF80E4B002B00D098470D4B93
:1034C000002B00D098470020002104000D000D487B
:1034D000002802D00C48AFF3008003F0AFF82000C2
:1034E0002900FEF735FE03F095F800BF0000080044
:1034F0000000000000000000F80B0020C0110020B8
:10350000D42E00200000000000000000002383F300
:1035100000887047FEF7EEBDEFF30880EFF30981F6
:103520002DE9F00F6B467246FDF740FA08B0FFF741
:10353000F1FFFEE7FEF7DEBDEFF30880EFF3098150
:103540002DE9F00F6B467246FDF730FA08B0FFF731
:10355000F1FFFEE7FEF7CEBDEFF30880EFF3098140
:103560002DE9F00F6B467246FDF720FA08B0FFF721
:10357000F1FFFEE7FEF7BEBDEFF30880EFF3098130
:103580002DE9F00F6B467246FDF710FA08B0FFF711
:10359000F1FFFEE7FEF7AEBDEFF30880EFF3098120
:1035A0002DE9F00F6B467246FDF700FA08B0FFF701
:1035B000F1FFFEE7814270B40546144602D370BCA9
:1035C00000F02EB8821821443CB141EA020313F006
:1035D00003030FD1E018032812D86FF00300A308EB
:1035E0004343002019441A442344984210D12846EA
:1035F00070BC704711F8013D013C02F8013DE3E762
:10360000581850F8046C981840F8046C043BE1E733
:103610000C1A14F8016C141A04F8016C0130E4E778
:1036200070B504463AB141EA040313F003030CD128
:10363000D518032D0FD822F003031C44194400238E
:1036400002F0030293420CD170BD11F8013B013A24
:1036500004F8013BE6E7CD1A2E68E51A2E60043B1C
:10366000E6E75D5CE5540133ECE70346F0B5C9B22B
:1036700052B9940803EB84041344A34211D1F0BD62
:1036800003F8011B013AF3E79C07F9D14FF001352C
:1036900014464D43D618032CEBD9371B3D60043C30
:1036A000F9E704F8011BE8E708B5EFF30583C3F376
:1036B00008030BB1FEF71EFDBDE80840FEF7D4BEBF
:1036C00010B50446EFF30583C3F308030BB1FEF70F
:1036D00011FD2046BDE81040FEF7C9BE2DE9F843B4
:1036E00004460D4616461F46EFF30583C3F3080351
:1036F0000BB1FEF7FFFCDFF834903B462046324624
:103700002946D9F80080FEF7B1FDD9F8003004460B
:10371000984506D0DB6901461869BDE8F843FEF715
:1037200057BDFEF749FD2046BDE8F883B4190020D7
:103730002DE9F04104460D4616461F46EFF305837A
:10374000C3F308030BB1FEF7D5FC3B4632462946CE
:103750002046BDE8F041FEF7A1BE2DE9F041044648
:103760000D4616461F46EFF30583C3F308030BB15E
:10377000FEF7C0FC3B46324629462046BDE8F041F4
:10378000FEF7C8BE01680E4A0346914215D1C169D1
:10379000A2F11022A2F1EF1291420ED18268012A09
:1037A0000BD8C26812B101698A4206D0586928B1A3
:1037B0009B691B1A5842584170470120704700BF4F
:1037C00055AA00FF0D4B70B59E68A6B13046FFF7B5
:1037D000D9FF044678B9F3686BB935690DB920464D
:1037E00070BD2846FFF7CEFF28B9EB68B34202D17F
:1037F0002E462D69F2E70124F1E700BF601E00208C
:103800002DE9F041394E3468F368D4B1B468C4B1DD
:10381000002861D000295FD001FB00F5B5FBF0F076
:10382000884259D1291D57D8AA070DD025F0030287
:1038300004321C4603E0616891424FD2A469002C17
:10384000F9D12046BDE8F0812A46F2E7891A2329FA
:1038500004F12007D4E9050C1AD80123A360A0B114
:10386000C0F818C0A36903B158610023C4E9053347
:103870003369DB0702D5FFF7A5FFA0BB2A4600216D
:1038800038463C46FFF7F1FEDBE7C6F80CC0E9E737
:1038900002F1200804EB08032039C3E9011E216965
:1038A000DFF84CE0DC60196144F808E0AEF1102E5E
:1038B000AEF1EF1EC3F81CE001B1CB60C3E9050C0B
:1038C00040B18361996901B14B6101212361C4E970
:1038D0000121CAE7F360F5E70024B2E7D4F808E075
:1038E000BEF1000FB2D0012002F094FE601E002055
:1038F00055AA00FFF8B5054600283AD0364E336881
:10390000002B36D0B268002A33D0834203D87268C5
:103910001344984202D3012002F07CFEA0F120045F
:103920002046FFF72FFF0028F5D155F8183C012B52
:10393000F1D145F8180C55E90570DFB1BB68CBB97A
:1039400055F81C2C7B68203213447B60386100B131
:10395000C760202200212046FFF787FE386908B1A2
:1039600083682BB333699B0703D5FFF72BFF002830
:10397000D1D1F8BD40B3836833BB42686368134458
:10398000203363600369D4E90521236192B9B9B991
:10399000426981696261A161A2B19461A26902B1C7
:1039A000546103B1DC6020220021FFF75EFED9E7FD
:1039B0003C46E2E79161A1690029E9D04A61E7E765
:1039C000F160F8E7F460E9E7F36845F8083C03B113
:1039D0005C61F460C6E700BF601E002038B50D468C
:1039E0001422002104461248FFF73FFE11491248F5
:1039F00000F030F8232D1AD914F003031FBF043D43
:103A0000ED18C3F10403E4182A4600212046FFF70D
:103A10002CFE074B094AC3E900459C602260A2F1D5
:103A20001022203DA2F1EF126560E261DC6038BD3A
:103A3000601E0020F53800000138000055AA00FF84
:103A40000020704770470000014B1B68184700BFFB
:103A5000C0100020024B1860024B00201960704714
:103A6000C4100020C010002010B50446406A10B1F8
:103A7000A16A00F00FF9606AFFF7E6FF0020C4E9D1
:103A8000090010BD38B50446FFF7EEFF236A2C226B
:103A9000012B0CBF05466FF0960500212046FFF76D
:103AA000E4FD284638BD0000054B0A461978C907D1
:103AB00003D50146181D00F05CB86FF08800704710
:103AC000741E002010B5074C00F038F8204600F0B6
:103AD00061F8201F082100F0DDF8BDE8104000F07B
:103AE00045B800BF781E002038B50D4D2B78DB0798
:103AF00010D4281D00F03BF8044670B900F012F80D
:103B0000044650B900F030F8044630B92B7843F041
:103B100001032B700024204638BDFFF7D3FFFAE7DE
:103B2000741E0020044A002092F8803543F00103FF
:103B300082F88035704700BF7C1E0020F8B5094C24
:103B400020252646012720462762FFF79BFF013DDF
:103B500004F12C04F7D196F8803565F3000386F85C
:103B60008035F8BD7C1E0020002070477047002083
:103B7000704713B5002001AB144600F05FF830B970
:103B8000019BA34218BF6FF0930002B010BD6FF00D
:103B90009200FAE70020704710B50C4C236813B16F
:103BA0000B4B1B682BB900F059FD30B90122084BB3
:103BB0001A6001232360002010BD0138062801D9B6
:103BC000044810BD044B53F8200010BD1024002001
:103BD0000C240020FE8FFFFFC0670000144B2DE96E
:103BE000F043002814BF04461C46124F236883B0DC
:103BF000BB4219D016460D4620464FF4E07104F141
:103C0000040900F047F804F58E78484600F010FCEF
:103C1000404600F035FA2B464A4640460649009693
:103C200000F044FA08B92760002003B0BDE8F08333
:103C300014240020A5BCC95AB544000070B50D4C31
:103C40001D46002814BF064626460B4B306882B03E
:103C500098420DD106F58E70002633460096144624
:103C600000F072FA002818BF34462C6002B070BD14
:103C70000248FBE714240020A5BCC95AE88FFFFFC7
:103C800038B131B1002201440346013081421A703B
:103C9000FAD1704738B131B10022014403460130F6
:103CA00088421A70FAD170472DE9F04FB2F5C07F03
:103CB000B5B000F2D680DFF8B09114460D464FF44F
:103CC000D07200210DF15C0807464846FFF7CDFC95
:103CD000404601F0EFF90023A9F8103020232946CF
:103CE00009F11805224689F81730284663BAA9F861
:103CF0001230FFF795FC80225C4B4046079303F19E
:103D00000433089303F1043309932A5503F1043370
:103D100007A90A9301F0E4F9824600287ED10FAD8D
:103D200004F119032C460BAE0293039701960495F8
:103D3000102200210198FFF798FCDFF834B1DDF87C
:103D400008A005940E9B5BF8044C5BF80C7C0B9967
:103D50005BF8100C5BF8085C5C40019BDDE90C62D1
:103D60007E40554081EA00071A4601214046CDE9D0
:103D70000B76CDE90D5401F0CDF9BAF1100F94BFD7
:103D8000AAEB0A0AAAF1100A0BF1100B002863D162
:103D9000BAF1000FD6D1059C102220460199FFF7F9
:103DA0003FFC99F8033010340133A04589F8033003
:103DB000BED1049D802229464046039F019E01F00A
:103DC0008FF9824660BB3C4607F1200913AB1A46C7
:103DD0000121404601F09EF9824608BB1022204690
:103DE00013A91444FFF71CFC4C45EFD1404601F0E9
:103DF00071F94FF4D0711C48FFF74CFF2846202181
:103E0000FFF748FF07A81021FFF744FF30461021B5
:103E1000FFF740FF504635B0BDE8F08F0FAD0BAE59
:103E2000404601F057F94FF4D0710F48FFF732FFC9
:103E300028462021FFF72EFF102107A8FFF72AFFB1
:103E400010213046FFF726FF20213846FFF722FFDA
:103E5000504635B0BDE8F08F8246039F019E049D19
:103E6000DEE76FF0370AF3E7D425002000010203F4
:103E7000E42500202DE9F04188B004460D462022BB
:103E8000002168466F46FFF7F0FB04F12006E27B55
:103E90000132D2B2E273002A4DD1A27B0132D2B2FA
:103EA000A273002A47D1637B0133DBB26373002B1B
:103EB00041D1237B0133DBB22373002B3BD1E37A67
:103EC0000133DBB2E372002B35D1A37A0133DBB2CD
:103ED000A372002B2FD1637A0133DBB2637253BB21
:103EE000237A0133DBB223722BBBE3790133DBB2DC
:103EF000E37103BBA3790133DBB2A371DBB963794F
:103F00000133DBB26371B3B923790133DBB22371BF
:103F10008BB9E3780133DBB2E37063B9A378013383
:103F2000DBB2A3703BB963780133DBB2637013B9C2
:103F30002378013323703B4622460121304601F0AD
:103F4000E9F8804650BB103708AB9F429FD1029AD8
:103F5000AB68039F534002933046EE6807997E405A
:103F60000396049F2E69009B7E4004966E69059F10
:103F700080227E400596069FAE697E400696EE69D9
:103F80007140079129684B40009301996B684B4041
:103F90006946019301F0A4F8804638B168462021B3
:103FA000FFF778FE404608B0BDE8F08110222046B9
:103FB0000DEB0201FFF734FBF0E700BF2DE9F843FA
:103FC0001D468369B3F5C07F52D81646C3F5C0724B
:103FD000AA424DD3C5F5C072D31AB34248D30446A2
:103FE000DFF898904FF4C0720F4648460021FFF763
:103FF0003CFB4946D4F89430A269D4F8980098471D
:10400000002838D1D4F818803DB1D4E925302A46AB
:1040100009EB0801984770BBA84407B1C6B9174916
:1040200042460846FFF740FE054638B14FF4C071DE
:104030001248FFF72FFE2846BDE8F88320460F49B7
:10404000FFF718FF05460028F0D101232361EDE7B3
:104050003946324609EB0800FFF7E2FA0749B04457
:1040600042460846FFF720FE05460028DED1E5E778
:104070006FF03705DFE76FF03305DCE774270020CA
:1040800010B5A42200210446FFF7EFFA4FF0FF31EC
:104090004FF6F072044B2161E26104F19C001B6851
:1040A000BDE81040184700BFE81000202DE9F0439C
:1040B000054685B00F4616460021102268469946EF
:1040C000FFF7D3FA1E4B05F19C0840461B68984742
:1040D00020B10446204605B0BDE8F08305F1200478
:1040E000204600F0E7FFAA69C5E92576EAB9202352
:1040F0002E69AB61002E20DB20466946802200F04D
:10410000EFFF044630B93346494628460C9AFFF77C
:1041100055FF04460B4B40461B689847002818BFC4
:104120000446204605B0BDE8F0832E69002EE3DA90
:10413000172A02D801325608DEE70026DCE700BF66
:10414000E4100020E01000202DE9F04FB2F5806F60
:104150008DB0169F00F2E380B7F5807F00F2DC801F
:10416000044615460E462022002104A89846FFF773
:104170007CFA6C4B04F19C0948461B6898478346BF
:10418000002840F092802269E3699A4200F391800E
:104190006369002B40F08D80002F40F0A980DFF88C
:1041A00088A16F46002D00F098806F4604F120082A
:1041B0000EE0102DAB4628BF4FF0100B30463946AD
:1041C0005A46FFF72DFAB5EB0B055E4400F08580EB
:1041D000E37B0133DBB2E373002B4DD1A37B0133CF
:1041E000DBB2A373002B47D1637B0133DBB2637374
:1041F000002B41D1237B0133DBB22373002B3BD156
:10420000E37A0133DBB2E372002B35D1A37A0133B9
:10421000DBB2A372002B2FD1637A0133DBB263725E
:1042200053BB237A0133DBB223722BBBE379013317
:10423000DBB2E37103BBA3790133DBB2A371DBB95A
:1042400063790133DBB26371B3B923790133DBB234
:1042500023718BB9E3780133DBB2E37063B9A378E0
:104260000133DBB2A3703BB963780133DBB2637017
:1042700013B92378013323703B462246012140467F
:1042800000F048FF8346002893D0DAF80030484613
:1042900098470346202104A8002B18BF9B46FFF730
:1042A000F9FC10213846FFF7F5FC58460DB0BDE883
:1042B000F08F3A46414600232046FFF77FFEDFF8A5
:1042C00068A000283FF46DAF4846DAF80030984700
:1042D000834600283FF465AFE7E7204604A9FFF7CF
:1042E000C9FD83460028D0D1236901332361CCE77F
:1042F0003A46414604A8FFF7D7FC834618B16F46FB
:10430000DFF824A0C1E7204604A9FFF7B3FD8346E8
:1043100000283FF444AFF2E76FF0370BC5E76FF0CA
:10432000350BC2E7E4100020E01000202DE9F04337
:10433000202B1D460646884691468BB026D8DBB218
:1043400002AF8DF80480B04658F8041B8DF8053094
:1043500021B9404600F020FF044640B90123022263
:104360004046336001A900F02BFF044638B13846BF
:104370002021FFF78FFC20460BB0BDE8F0832A46D2
:104380004946404600F01CFF0446F0E702AF1946DC
:10439000104600233A4601F099F804460028E6D179
:1043A0002023B9461D46CCE72DE9F041D0F8F8307E
:1043B000A6B0002BD8BF02AE31DD05460027D0F8ED
:1043C0000C4102AEA4F101089022D5F8FC40314620
:1043D000D0F8000101AB0197B8FA88F8A0474FEA7E
:1043E0005818044620B9019B53B9B8F1000F16D0F4
:1043F00030469021FFF74EFC204626B0BDE8F08104
:10440000014632462846FFF791FF58B9D5F80431E6
:10441000019A1344C5F80431B8F1000FE8D16FF0E8
:104420003C04E5E70446204626B0BDE8F08100BF25
:1044300070B500250446142204F588762946C0F894
:10444000F850FC30FFF711F9082229463046FFF7F3
:104450000CF9144B30461B689847204640F8045B23
:1044600000F080FE104B30461B689847C8B9D4F85E
:10447000F830AB420FDC03EB830204EB8202202115
:10448000C2F800010120C2E9421008490133C2F814
:10449000FC10C4F8F830064B3046BDE870401B688D
:1044A000184770BDE8100020E4100020B94F00004C
:1044B000E01000202DE9F047202A88B07AD83F4B41
:1044C00000F5887904461B68484617468846984791
:1044D0000546F8B940F20116D4F8F830002B65D043
:1044E0002046FFF761FF054638B9D4F8F830002BB5
:1044F00014DC013EF2D16FF03B056E4620213046C0
:10450000FFF7C8FB2E4B48461B689847002818BF8A
:104510006FF01D05284608B0BDE8F087D4E94132A8
:10452000934203D3D4F80C21012A02D0013ED7D103
:10453000E1E71F2BFAD96E4601462022304604F1EE
:10454000040AFFF792F83146504600F063FE054634
:104550000028D3D1504600F019FE504600F002FE6C
:104560002946504600F018FE05460028C6D15046A0
:104570002022314600F024FE05460028BED1034625
:1045800032462021304600F0A1FF05460028B5D173
:10459000D4F8F8303A46002BC8BF002340463146D5
:1045A000C8BFC4F80431FFF73BF8A7E76FF03F0539
:1045B0006E46A3E76FF03B05ACE700BFE4100020B8
:1045C000E0100020002130B58DB0282202A8019112
:1045D000FFF74BF802A800F0A1FF044610B12046F7
:1045E0000DB030BD174D4FF0FF31286800F044F991
:1045F000044620B1144800F0D5F9012C18D0002051
:1046000000F06AF9D0B9114A02A901A800F0C6FC6D
:104610000446012000F060F960B9286800F034F920
:104620000028DCD00A4800F0BDF920460DB030BDAE
:104630000524F2E7074800F0B5F9EEE7064800F078
:10464000B1F9E0E7CC100020DC670000F42800207E
:104650003468000014680000F467000030B583B0CF
:1046600000F05CF828B100F0ABF80324204603B05A
:1046700030BD00F077F8D8B900F02EF9E0B9224C3F
:10468000D4F828391B0EF02B0AD1D4F8242A1F4B5A
:104690009A4231D000F044F8072400F091F8E5E7A1
:1046A000062400F03DF800F08BF8204603B030BD42
:1046B0000424204603B030BD00F032F800F080F84A
:1046C000FFF780FF044698B9114D2B68002BCDD120
:1046D00002460146FFF782FA50B968220D4901AB44
:1046E000FFF7ACFA20B920460B4B2B6003B030BD6E
:1046F0000524204603B030BD012000F0EDF800286D
:10470000DAD1C4F80C0ADBE7001084500000E02086
:10471000142B0020182B00205AEA5A5A0020704708
:1047200000207047430504D54FF0FF32034BC3F818
:104730000821024BC3F8080A704700BF00108450DC
:10474000014BC3F8040A70470010845008B100F010
:104750006BB84FF47500704708B100F04FB84FF4D4
:104760007500704710B5114800F072F800B110BD27
:104770000F4800F06DF80028F9D10E4C204600F0EB
:1047800067F80028F3D10C4B0C481C6000F060F86F
:1047900001460028EBD100F02DF8044608B1204670
:1047A00010BD00F07BF82046FAE700BFDC100020C7
:1047B000D8100020D4100020CC100020D0100020F1
:1047C00008B5084800F04EF8074800F04BF80748D5
:1047D00000F048F8064800F045F8BDE8084000F051
:1047E0000BB800BFDC100020D8100020D41000202F
:1047F000D010002000207047704700BF024610B460
:10480000084CD4F8003A1342FBD021B1D4F804315B
:104810000B60C4F80831034B0020C3F8082A10BC11
:10482000704700BF00108450044AD2F8003A184282
:10483000FBD0C2F8080A0020704700BF0010845067
:10484000FEF7B8BEFEF711BF0A460021FEF70DBF06
:1048500008B5034B02681B6810689847002008BD24
:104860000811002008B5034B02685B681068984780
:10487000002008BD08110020024B02689B681068E8
:10488000184700BF0811002008B5034B0268DB6819
:1048900010689847002008BD0811002070B5094C29
:1048A000094D2069AB68984718B1084B08485B6808
:1048B00098470021074AEB6811602069BDE8704005
:1048C000184700BFF410002008110020EC10002051
:1048D0004C680000802B0020F8B51A4D1A4E044693
:1048E000B26828699047E8B9184F3B684CB1A3B14A
:1048F000012B19D0013B3B602869F36898470020E1
:10490000F8BD43B90121124AC2F800151149D1F886
:104910001029002AFBD101333B60F36828699847CE
:104920000020F8BD0C48F8BD0A4AD2F81039002B17
:10493000FBD1074A6FF07E40C2F80035FFF700FF59
:104940003B68D7E7F410002008110020802B0020DE
:104950000000845000108450E98FFFFF014B1B685A
:10496000184700BF08110020014B9B68184700BF83
:1049700008110020014BDB68184700BF0811002018
:10498000BFF34F8F0549064BCA6802F4E062134338
:10499000CB60BFF34F8F00BFFDE700BF00ED00E02D
:1049A0000400FA0530B44FF0FE320025074B084CE6
:1049B00008494968C3F80024C3F80424C3F808244C
:1049C000C3F80C24C4F8005530BC084700108450CC
:1049D00000008450EC10002010B5044650B163680C
:1049E00013F0685F05D0064A934202D0002362604C
:1049F000236010BD034B04485B689847EFE700BF96
:104A00002C5F5CA9EC1000206C680000C8B1436802
:104A10000D4A934213D013F0685F0ED0012350E883
:104A2000002F194640E8001C9CF0000FF7D1012A26
:104A3000F5D0BFF35F8F00207047044870470448EB
:104A400070476FF4E04070472C5F5CA9E98FFFFF6F
:104A5000EA8FFFFF034680B1426809498A420AD0C3
:104A600012F0685F05D0BFF35F8F002210461A6016
:104A7000704704487047044870476FF4E04070473F
:104A80002C5F5CA9E98FFFFFEA8FFFFF10B504469A
:104A900020B10023034A2360626010BD0248FFF783
:104AA00081FFF6E73A00003A946800002DE9F047EC
:104AB000002878D00C46002975D01D46002B72D0F6
:104AC00007461AB1012200232A6003602B68002BDD
:104AD00064D02946204600F00FFE804600285FD1B2
:104AE0002146286800F0EEFD8046002858D12B684A
:104AF000082B6CD0042B6DD0A3F10209B9FA89F907
:104B00004FEA59190121354EC6F8C411C6F84011B3
:104B1000C6F8C411636AC6F83031D6F83021934222
:104B2000F6D14FF0000A4FF0FF30C6F82CA1FFF786
:104B3000F9FD6FF01B035046C6F80031FFF700FE89
:104B4000C6F80C91D6F8040A40F48060FFF7F8FD2F
:104B50000A23C6F83831089B012B29D02369204A43
:104B6000A2FB03231B09626A404602FB03F303EB2B
:104B700043031A4ADB039B09C2F8D8310123C2F868
:104B80002C313B682A6823F07F4343EA02633B6091
:104B90002A6843EA02233B60BDE8F087DFF84480DF
:104BA0004046BDE8F087DFF840804046BDE8F0872A
:104BB0004FF47F03D3F80C2C013206D0D3F80C3C11
:104BC000074AA2FB03231B09CDE71623CBE74FF0CF
:104BD000030997E74FF0020994E700BF00108450E3
:104BE000ABAAAAAA310CF100350CF10058B34B1E48
:104BF000B3F5047F27D230B54FF0000ECD007446D8
:104C000071464B0901F01F0C50F82330BCF11F0F07
:104C100023FA0CF306D003F0010319B901211C4655
:104C20008E46EEE79C4201F1010106D01C464FF092
:104C3000010EA942E5D1002030BD0EF1010E9645CE
:104C4000F7D1024830BD0148704700BF360CF10073
:104C5000C0B32DE9F0434C1EB4F5047F1DD2E3B17F
:104C6000DAB100252E46A8462C46CF0003F1FF39C5
:104C70004FEA541C04F01F0E50F82C10BEF11F0F09
:104C800021FA0EFC0CD00CF0010C4CB90126E046C8
:104C900034463546ECE7964216D90C48BDE8F08319
:104CA000AB420BD0C44508BF0136A945F3D001354E
:104CB0000134BC42DCD10020BDE8F0830125E04690
:104CC0002E46F5E7014870471D46F1E7370CF10025
:104CD0002DE9F04F91B08346DDE91B460D46002ECD
:104CE0006ED10F691C6000231A990B60002A00F036
:104CF0002F819D4B6A6AD3F83811D3F830319A422C
:104D000069D10A2967D19BF80330089304F108039D
:104D1000079304230593954B934CA3FB07239B0810
:104D200003EB4303A7EB4303039306971A9B069EEB
:104D30001E60002E00F0EA8000F0EEFC00230993D4
:104D4000BBF1000F00F0D58098464FF0010ADDF866
:104D50001C90002D00F0CD80089B002B3DD02846F4
:104D600008A900F0C9FC002839D0814B984220D016
:104D7000089B082B00F0E48000225B000893294682
:104D800008AB58460092FFF791FE7A4B984200F02C
:104D9000D38070B9DBF80020130A03F47F031343B8
:104DA00023F07F43CBF80030059B013B0593BDD139
:104DB0000020039000F0B0FC039811B0BDE8F08F24
:104DC0004FF47F01D1F80C0C01300CBF4FF4047785
:104DD000D1F80C7C86E76848EBE76648C5E72946CA
:104DE000089800F06FFC0028BFD1089B082B00F04A
:104DF000A980042B00F0A980A3F10203B3FA83F386
:104E00005B090493C4F8C4A1C4F840A1C4F8C4A1C8
:104E10006B6AC4F83031D4F830219342F6D10023C4
:104E20004FF0FF30C4F82C31FFF77CFC002318460C
:104E30006FF01B03C4F80031FFF782FC049B4B4F5B
:104E4000C4F80C31D4F8040A40F48060FFF778FC11
:104E50000A23C4F838312B6909A8A7FB03236A6A1F
:104E60001B0902FB03F303EB4303DB039B09C4F8B9
:104E7000D831C4F82CA1DBF80030089923F07F4228
:104E80000B0243EA01631343CBF8003000F00AFC45
:104E9000099B03F01A0303437FF46AAFA7FB0637AD
:104EA000D4F81431B8EB970F0A93D4F818310B9358
:104EB000D4F81C310C93D4F820310D93D4F824315C
:104EC0000E93D4F828310F9301D1039B9BB9484628
:104ED00018220AA9183EFFF7B3FC09F1180908F1D6
:104EE00001089EB100F018FC00230993002D7FF407
:104EF00033AF224839E748461A46F61A0AA99944B8
:104F000008F10108FFF79CFC002EEBD1069F079EDD
:104F10006A6939463046FFF769FEAA6940B94FF41D
:104F2000806339463046FFF793FE00283FF440AFD8
:104F300000231A9A136018E72B6A002B3FF439AF4D
:104F40000F4836E7032304935CE70223049359E7F1
:104F5000012229465846009608ABFFF7A7FD002816
:104F60003FF4D4AE25E700BF00108450ABAAAAAA34
:104F7000020CF100310CF100300CF100350CF100A5
:104F8000320CF10010B4DDE9013401940024DDF8A5
:104F90000CC0CDE902C410BCFFF79ABE30B515466F
:104FA000012487B005AB00930022CDE9015404AB86
:104FB000FFF78EFE07B030BDF0B587B0002966D090
:104FC0001E46002B63D01446002A60D0314F0D4698
:104FD00038684FF0FF31FFF74FFC00284DD100201B
:104FE000FFF77AFC002844D12B4800F097FAD8B19B
:104FF00001204FF0FF35FFF76FFC002835D14FF44B
:1050000008712648FEF73CFE04212548FEF738FECD
:1050100021482821FEF734FE3868FFF735FC0028C8
:105020002FD1284607B0F0BD1C4A0346029205AABC
:10503000019204AA03900092174902461848FFF70C
:10504000A1FF03460028D3D128461D46059B2246D2
:105050009C4228BF1A46049932600831FFF7F0FBE2
:105060000120FFF739FC0028C9D00E48FFF79AFC51
:10507000C5E70D48FFF796FCB6E70C48FFF792FC32
:10508000ADE70B48FFF78EFC284607B0F0BD4FF0A8
:10509000FF35C6E7CC100020982B0020C02B002045
:1050A000942B002014680000F4670000DC67000007
:1050B000B868000010B5044630B1002201236265D3
:1050C000A265E365236610BD0148FFF76BFCF4E7BA
:1050D000D068000018B174220021FFF7B3BB7047FD
:1050E00088B199B110B50024802A846380F83C40CF
:1050F00006D1102204631044FFF7A2FB204610BD26
:105100006FF01F0010BD6FF0210070476FF01F009F
:10511000704700BF70B5044686B0F8B11046EAB1DA
:10512000E3B101291AD8A26B16D0012A16D1102595
:1051300000210DEB0506019602AA61632946009540
:1051400000F0F6FA50B92B463246204602A900F08C
:1051500099FD18B906B070BD002AE8D06FF02100A3
:10516000F8E700BF10B5044628B12046BDE810405E
:10517000F421FFF769BB0448FFF714FC2046BDE8A3
:105180001040F421FFF760BBE468000010B1F42187
:10519000FEF776BD704700BF08B521B1012908D0E0
:1051A0006FF0360008BD012100F058F80028F7D153
:1051B00008BD022100F052F80028F9D0F0E700BF46
:1051C00030B505468818B0F5801F0B461446A1B0CF
:1051D00001D8802A0CD9B3F5801F17D92246194669
:1051E000284600F07DF8044684B9204621B030BD41
:1051F0006846FFF725FB22466946284600F070F80E
:10520000802104466846FFF71FFBEDE76FF0360488
:10521000EBE700BF70B5E8B10E46D9B1044600F027
:1052200031F80546B0B92368012B0BD0022B01D011
:10523000284670BD1C22304604F10801FFF700FB30
:10524000284670BD2022304604F10801FFF7F8FA25
:10525000284670BD6FF03605EAE700BF78B138B573
:105260000D46F0210446FFF7EFFA40232046256063
:10527000E36500F091FA003818BF012038BD012025
:10528000704700BFF0B5056EA5B0044604AEE5B9A1
:1052900000230127019330466760294602AA009344
:1052A00000F046FA10B1012025B0F0BD2A46204694
:1052B00002A900F099FA0028F5D1204600F0AAFBD7
:1052C0000028F0D1206625B0F0BD802D2A4630465A
:1052D00028BF802204F16401FFF7B2FA256ED7E7F8
:1052E000002800F0AE802DE9F04F1446A5B0002A4A
:1052F0003DD00F46002949D0B2F5803F0546006EEB
:1053000020D34FF6FF7805F1640AEB6D1A1AB2FB51
:10531000F3F103FB1122002A65D18342B9464FF60F
:10532000FF7672D0B6FBF3FB03FB0BFBBBF1000F68
:1053300030D1002E45D1A4F57F44FF3CB4F5803F29
:105340004744E2D2EA6D161AB6FBF2F302FB13668B
:10535000A64228BF2646002E75D1824200F08D80DD
:10536000B4FBF2F602FB06F62EB9002C79D1002030
:1053700025B0BDE8F08F002331463846CDE9003333
:1053800002AA00F0D5F9002800F09580012025B090
:10539000BDE8F08F002359464846CDE9003302AA04
:1053A00000F0C6F90028F1D15A46284602A900F0BB
:1053B0001BFA0028EAD1A6EB0B06286ED944002E72
:1053C000B9D019304946324605EB8000FFF738FA6C
:1053D000A4F57F44286EFF3C3044B4F5803F474439
:1053E000286692D2AEE7424528BF42461646394665
:1053F0005044FFF725FA286EEB6D3044834207EBEB
:1054000006092866A8EB06068CD1802B28BF8023CE
:1054100051461A4604A8FFF713FA0023E96D02AAC1
:10542000CDE9003304A800F083F90028AED1284666
:10543000EA6D02A900F0D8F90028A7D1EB6D286623
:1054400070E70120704705F164033946324618447D
:10545000FFF7F6F9286EEA6D3044A41B374428663E
:105460007BE72B6E2246193305EB83003946FFF7A5
:10547000E7F92B6E23442B6679E7802A28BF802228
:1054800005F1640104A8FFF7DBF90023E96D04A826
:10549000CDE9003302AA00F04BF900287FF476AF83
:1054A0002846EA6D02A900F09FF900287FF46EAF4C
:1054B000EA6D286654E73246284602A900F094F9BE
:1054C00000287FF463AF3744A41B4EE7F8B51C46B1
:1054D0000546114816460F46FFF744FE21460E4882
:1054E000FFF75AFE044620B10B48FFF74FFE204657
:1054F000F8BD3A4629460848FFF762FE04460028F0
:10550000F2D131460448FFF785FE04460248FFF712
:105510003DFE2046F8BD00BFE02D00201C2370B5E5
:1055200082B001A90546019300F032F8044638B96B
:10553000019B1C2B07D0144C1C212846FFF784F933
:10554000204602B070BDD5E90112131E18BF012319
:10555000003918BF0121012628689B00EA6843EA48
:105560004103002818BF43F00103EE612AB9C5E9E1
:105570000834002BE4D1054CDEE7204643F0080355
:10558000C5E9083402B070BD370CF0000E0CF00015
:105590000346002866D0002964D00A681C2A61D11D
:1055A0004FF47F023B49D2F8100C88425CD0D2F80D
:1055B000101C013158D0D2F8101C4FF47F02196032
:1055C000D2F8140C3449884260D0D2F8141C01314E
:1055D0005CD0D2F8141C4FF47F025960D2F8181C2A
:1055E00011F5947F4FD0D2F8181C01314BD0D2F86E
:1055F000181C4FF47F029960D2F81C0C274988428E
:105600003ED0D2F81C1C01313AD0D2F81C1C4FF409
:105610007F02D960D2F8001C70312FD0D2F8001C64
:1056200001312BD0D2F8001C4FF47F021961D2F85F
:10563000041CAF3120D0D2F8041C01311CD0D2F8A8
:10564000041C4FF47F025961D2F8080C14498842B7
:105650000DD0D2F8081C013109D0D2F8082C002056
:105660009A6170470120704740F6FC01A5E740F2BF
:10567000373200209A6170475121E2E79021D3E749
:1056800042F60411C3E740F6D861B2E742F2D00116
:10569000A1E700BFFCF8FFFFD020FFFF0429FFFFB8
:1056A00037F3FFFF014608B54FF48060FFF754F869
:1056B0000022034BC3F8C821C3F82C2108BD00BF4A
:1056C000001084500138072805D8DFE800F0100EDC
:1056D000040A0404040607487047CB6800204B62A4
:1056E00070478B6800204B6270474B68F6E70B6889
:1056F000F4E700BF310CF1000B6802E0082B0B60EF
:1057000006D8026A13424FEA4303F7D000207047DD
:1057100000487047310CF1000022044B4FF48060C8
:10572000C3F82C21C3F8C421FEF7FCBF001084503D
:10573000F0B5002483B0B0F1005F8DF8074025D3A9
:105740008C468444BCF1804F04461FD817461D4642
:1057500001220DF1070300F059FF0646B0B99DF88C
:105760000730099A3C603B7192B14DB102460899ED
:1057700028460DF1070300F049FF38B99DF80730BE
:105780003046099A1560137103B0F0BD4FF47506E9
:10579000304603B0F0BD00BFD8B108B50368012B97
:1057A00004D0022B0FD043B10B4808BD20220B4977
:1057B0000830FFF745F8002008BD142208490830DA
:1057C000FFF73EF8F7E7202206490830FFF738F8E0
:1057D000F1E74FF4730070470100F300F468000034
:1057E00034690000146900002DE9F843002900F035
:1057F000F9800446002800F0F98003680F469046BF
:10580000002B00F0C380013B012B00F2D7804FF04A
:10581000FF3178484FF00209FFF72EF8002840F0DA
:10582000BF800020FFF758F80646002840F0C280ED
:10583000714AD2F81C39002BFBD16F4DD5F8203CB2
:10584000002BFBD14FF0FF30FEF76CFFD5F8040AB8
:1058500020F04000FEF774FF01230722C5F8183836
:10586000C5F80029C5F8C437A36CC5F8CC37E36C7C
:10587000C5F8D037C5F8C09723685BB1013B012B51
:1058800018D8636AC5F85C36236AC5F85836E369E8
:10589000C5F85436A269584BC3F850266269C3F85C
:1058A0004C262269C3F84826E268C3F84426A26859
:1058B000C3F84026504AD2F81039002BFBD1B8F17A
:1058C000000F5FD063684020012B08BFC2F8843608
:1058D0003A68494BC3F8282CC3F82C8CFEF736FFE6
:1058E0000646454AD2F81039002BFBD1424AD2F87D
:1058F000203C002BFBD123685BB1013B012B18D866
:10590000D2F85C366362D2F858362362D2F8543645
:10591000E361394BD3F85026A261D3F84C2662617B
:10592000D3F848262261D3F84426E260D3F8403603
:10593000A36000230121304AD2F8CC07A064D2F83A
:10594000D007E064C2F8C417C2F88436C2F8C8377A
:10595000D2F81039002BFBD1C2F81838002E3BD1F9
:10596000254BD3F8040A40F04000FEF7E9FE012081
:10597000FEF7B2FF60BB1F48FEF786FF10BB304644
:10598000BDE8F8830423C2F8C837AAE74FF0FF3117
:1059900018484FF00109FEF76FFF00283FF441AFB0
:1059A0001648FEF7FFFF0020FEF796FF0646002888
:1059B0003FF43EAF1248FEF7F5FF39E7114E30468F
:1059C000BDE8F8831048FEF7EDFF3046BDE8F883E8
:1059D0000E48FEF7E7FFCEE7102104F10800FEF7BE
:1059E00033FFBDE70A4E3046BDE8F8834FF4730637
:1059F000C5E700BFDC10002000108450DC67000009
:105A0000F46700000100F30034680000146800002F
:105A10000300F300A0B3034670B4D0E90240D3E919
:105A2000041226BA05BA0CBA10BAC3E90440D3E985
:105A30000612986A09BAC3E9026512BA996100BAF6
:105A4000D3E9084125BA0CBAC3E90725D3E90B12FB
:105A5000C3E9094009BAD86B12BAD962D3E90D413A
:105A600025BAC3E90C250CBA00BAD3E9101209BA59
:105A700012BAC3E90E40196400205A6470BC704722
:105A80004FF47300704700BF002867D038B590F816
:105A90003C300446022B17D0032B42D0002B31D0D0
:105AA0003048314D2A68314B1268C3F800242A6807
:105AB0005268C3F804242A689268C3F808242A6844
:105AC000D268C3F80C2438BD016B006C00F0CEFB2B
:105AD000254D0028E6D12A68244B1268C3F800241B
